:100000000C94850C0C94CC0C0C94CC0C0C94CC0C57
:100010000C94CC0C0C94CC0C0C94CC0C0C94CC0C00
:100020000C94CC0C0C94CC0C0C94F81D0C94B41DBA
:100030000C9489300C94CC0C0C94CC0C0C94CC0CFF
:100040000C94CC0C0C94CC0C0C94CC0C0C94CC0CD0
:100050000C94CC0C0C94091A0C94CC0C0C94CC0C75
:100060000C94CC0C0C94CC0C0C94CC0C0C94CC0CB0
:100070000C94CC0C0C94CC0C0C94CC0C0C94CC0CA0
:100080000C94CC0C0C94CC0C0C94CC0C0C94CC0C90
:100090000C94CC0C0C94CC0C0C94CC0C0C94CC0C80
:1000A0000C94CC0C0C94CC0C0C94CC0C00010101E5
:1000B0000101010101010202020202020202020325
:1000C00003030303030303040404040404040505F5
:1000D00005050506060606060707070707080808B8
:1000E00008090909090A0A0A0B0B0B0C0C0C0D0D67
:1000F0000D0E0E0E0F0F0F101011111112121313FF
:100100001414151516161717181819191A1A1B1B77
:100110001C1D1D1E1E1F20202122222324242526D3
:1001200026272829292A2B2C2D2D2E2F303132320B
:10013000333435363738393A3B3C3D3E3F40414217
:10014000434445464748494A4C4D4E4F50515354FD
:10015000555658595A5B5D5E5F61626465666869B1
:100160006B6C6D6F7072737577787A7B7D7E808231
:10017000838587888A8C8E8F91939596989A9C9E7A
:10018000A0A2A3A5A7A9ABADAFB1B3B5B7BABCBE8A
:10019000C0C2C4C6C9CBCDCFD1D4D6D8DBDDDFE257
:1001A000E4E7E9EBEEF0F3F5F8FAFDFFFFAA7F557F
:1001B000402223252628292A2C2D2F30323335366C
:1001C000383A3B3D3E4042434547494A4C4E5051E8
:1001D000535557595A5C5E6062646668696B6D6F0F
:1001E00071737577797B7D7F81838587898A8C8E12
:1001F00090929496989A9C9E9FA1A3A5A7A8AAAC1A
:10020000AEAFB1B3B4B6B8B9BBBCBEBFC1C2C3C553
:10021000C6C7C9CACBCCCDCED0D1D2D2D3D4D5D6F5
:10022000D7D7D8D9D9DADADBDBDBDCDCDCDCDCDD28
:10023000DDDDDDDCDCDCDCDCDBDBDBDADAD9D9D80C
:10024000D7D7D6D5D4D3D2D2D1D0CECDCCCBCAC9A4
:10025000C7C6C5C3C2C1BFBEBCBBB9B8B6B4B3B1D3
:10026000AFAEACAAA8A7A5A3A19F9E9C9A9896946E
:1002700092908E8C8A89878583817F7D7B79777543
:1002800073716F6D6B6968666462605E5C5A595722
:10029000555351504E4C4A4947454342403E3D3BE1
:1002A0003A3836353332302F2D2C2A29282625236B
:1002B0002200AFA8001150200021001E001F0024C2
:1002C0000025002200230026002700000000002A4D
:1002D000002800A80012501A004C0014000E010F54
:1002E000001D010D000E000C001200000000003681
:1002F000003700A800135030034C002F0338010FC3
:10030000001D010D000E000C001200000000004254
:10031000004200D55C1450CD5CC25CC35CC45CC7B9
:100320005CC85CC55CC65CC95CCA5C00000000CEF1
:100330005CCF5CA800105020002100AF001F00AE71
:10034000002500AB00AC0026002700000000002ABA
:1003500000280000DA12818FD9F1DB40A4A62EAF6D
:1003600000A0C000A1C800AED580A83FD300408D3A
:1003700014200032190A00047F3F1F6432146432D3
:1003800014783C1E1E140A05000000000000000046
:1003900000000000008080C0C0E0E0E0E0F0F0F08D
:1003A000F0F0F0F0F0F0F0F0F0F0F0F0F0F0F0F04D
:1003B000F0F0F0F0F0F0F0F0F0F0F0F0F0F0F0F03D
:1003C000F0F0F0F0F0F0F0F0F0F0F0F0F0F0F0F02D
:1003D000F0F0F0F0F0F0F0F0F0F0F0F0F0F0F0F01D
:1003E000F0F0F0F0F0F0F0F0F0F0F0F0F0F0F0F00D
:1003F000F0F0F0E0E0E0E0C0C0808000000000002D
:1004000000000000000000000000000000000000EC
:10041000F0FCFEFFFFFFFFFFFFFFFFFFFF7F3F1F1F
:100420001F0F0F0F0707070703030303030303034C
:10043000030303030303030303030303030303038C
:10044000030303030303030303030303030303037C
:1004500003030303030303030303038383838383EC
:100460008383838383838383878707070F0F0F1F0C
:100470001F3F7FFFFFFFFFFFFFFFFFFFFFFEFCF0BF
:10048000000000000000000000000000000000006C
:10049000FFFFFFFFFFFFFFFFFFFFFFFF0000000068
:1004A000000000000000000000000000000000004C
:1004B00000000000000000FCFEFEFEFEFEFEFEFE50
:1004C000FEFEFEFEFEFEFEFEFEFFFFFFFFFFFFFF45
:1004D000FFFFFFFFFFFFFFFFFFFFFFFFFFFFFFFF2C
:1004E000FFFFFFFFFFFFFFFFFFFF00000000000016
:1004F00000000000FFFFFFFFFFFFFFFFFFFFFFFF08
:1005000000000000000000000000000000000000EB
:10051000FFFFFFFFFFFFFFFFFFFFFFFF00000000E7
:1005200000000000000000000000000000000000CB
:1005300000000000000000FFFFFFFFFFFFFFFFFFC4
:10054000FFFFFF0303030303030303030303030387
:100550000301010101010101010101010101FFFF8D
:10056000FFFFFFFFFFFFFFFFFFFF00000000000095
:1005700000000000FFFFFFFFFFFFFFFFFFFFFFFF87
:10058000000000000000000000000000000000006B
:10059000FFFFFFFFFFFFFFFFFFFFFFFF0000000067
:1005A0000000000000000000808080C0C0C0E0E0CB
:1005B000E0E0E0E0E0E0E0FFFFFFFFFFFFFFFFFF24
:1005C000FFFFFF0000000000000000000080E0E0EE
:1005D000F0F0F8F8F8F8F8FCFCFCFCFCFCFCFFFF81
:1005E000FFFFFFFFFFFFFFFFFFFF00000000000015
:1005F00000000000FFFFFFFFFFFFFFFFFFFFFFFF07
:1006000000000000000000000000000000000000EA
:10061000FFFFFFFFFFFFFFFFFFFFFFFF00000000E6
:100620000000000000001E3F7F7FFFFFFFFFFFFF75
:10063000FFFFFFFFFFFFFFFFFFFFFFFFFFFFFF7F4A
:100640007F3F1F0000000000000000000003070FB4
:100650001F1F1F3F3F3F3F3F3F3F3F3F3F3F3F3F0A
:100660003F3F3F3F1F1F1F0F070300000000000018
:1006700000000000FFFFFFFFFFFFFFFFFFFFFFFF86
:10068000000000000000000000000000000000006A
:100690000F3F7FFFFFFFFFFFFFFFFFFFFFFEFCF8A5
:1006A000F8F0F0F0E0E0E0E0C0C0C0C0C0C1C1C1FF
:1006B000C1C1C1C1C1C1C1C1C1C1C1C1C0C0C0C02E
:1006C000C0C0C0C0C0C0C0C0C0C0C0C0C0C0C0C02A
:1006D000C0C0C0C0C0C0C0C0C0C0C0C0C0C0C0C01A
:1006E000C0C0C0C0C0C0C0C0E0E0E0E0F0F0F0F8C2
:1006F000F8FCFEFFFFFFFFFFFFFFFFFFFF7F3F0F45
:1007000000000000000000000000000000000000E9
:10071000000000000001010303030707070F0F0F8C
:100720000F0F0F0F0F0F0F0F0F0F0F0F0F0F0F0FD9
:100730000F0F0F0F0F0F0F0F0F0F0F0F0F0F0F0FC9
:100740000F0F0F0F0F0F0F0F0F0F0F0F0F0F0F0FB9
:100750000F0F0F0F0F0F0F0F0F0F0F0F0F0F0F0FA9
:100760000F0F0F0F0F0F0F0F0F0F0F0F0F0F0F0F99
:100770000F0F0F070707030303010100000000002C
:100780000000000000000000000000000000000069
:100790000000000000000000000000000000000059
:1007A0000000000000000000000000000000000049
:1007B00000000000008080C0E0E0F0F0F8F8F8F8F9
:1007C000F8E0800000000000000000000080E0F081
:1007D000F8F8F8F8F0F0E0E0C080800000000000D9
:1007E0000000000000000000000000000000000009
:1007F00000000000000000000000000000000000F9
:1008000000000000000000000000000000000000E8
:1008100000000000000000000000000000000000D8
:1008200000000000000000000000000000000000C8
:100830000000000E3F7FFFFFFFFFFFFFFFFFFFFFF6
:10084000FFFFFFFFFCF8F8FCFCF8F8FCFEFFFFFFE1
:10085000FFFFFFFFFFFFFFFFFFFFFF3F0F00000055
:100860000000000000000000000000000000000088
:100870000000000000000000000000000000000078
:100880000000000000000000000000000000000068
:100890000000000000000000000000000000000058
:1008A0000000000000000000000000000000000048
:1008B0000000000080E0F9FFFFFFFFFFFFFFFFFFE8
:1008C0007F3F1F1F1F0F0F0F0F0F0F1F1F1F3F7F98
:1008D000FFFFFFFFFFFFFFFFFFF9E0C00000000088
:1008E0000000000000000000000000000000000008
:1008F00000000000000000000000000000000000F8
:1009000000000000000000000000000000000000E7
:1009100000000000000000000000000000000000D7
:10092000000000000000000000FCFEFFFFFFFFFFD2
:10093000FFFFFFFFFFFFFFFFFFFFFFFF1F030100A0
:1009400000000000000000000000000000000000A7
:100950000001030FFFFFFFFFFFFFFFFFFFFFFFFF90
:10096000FFFFFFFFFFFEFC00000000000000000092
:100970000000000000000000000000000000000077
:100980000000000000000000000000000000000067
:100990000000000000000000000000000000000057
:1009A0000000000000000000003F7FFFFFFFFFFF8E
:1009B000FFFFFFFFFFFFFFFFFFFFFFFFF0C0000093
:1009C0000000000000000000000000000000000027
:1009D0000000C0F0FFFFFFFFFFFFFFFFFFFFFFFF73
:1009E000FFFFFFFFFF7F3F0000000000000000004E
:1009F00000000000000000000000000000000000F7
:100A000000000000000000000000000000000000E6
:100A100000000000000000000000000000000000D6
:100A200000000000000000000000000000000000C6
:100A300000000000030F9FFFFFFFFFFFFFFFFFFE0F
:100A4000FCFCF8F8F0F0F0F0F0F0F0F0F0F8F8FC62
:100A5000FEFFFFFFFFFFFFFFFF9F0F0300000000EF
:100A60000000000000000000000000000000000086
:100A70000000000000000000000000000000000076
:100A80000000000000000000000000000000000066
:100A90000000000000000000000000000000000056
:100AA0000000000000000000000000000000000046
:100AB00000000070FCFEFFFFFFFFFFFFFFFFFFFFD6
:100AC000FFFFFFFF3F3F3F3F3F3F3F3F7FFFFFFFB6
:100AD000FFFFFFFFFFFFFFFFFFFFFFFCF000000035
:100AE0000000000000000000000000000000000006
:100AF00000000000000000000000000000000000F6
:100B000000000000000000000000000000000000E5
:100B100000000000000000000000000000000000D5
:100B200000000000000000000000000000000000C5
:100B3000000000000001010303070F0F1F1F1F1F0C
:100B40001F07010000000000000000000001070F67
:100B50001F1F1F1F0F0F07070301010000000000E8
:100B60000000000000000000000000000000000085
:100B70000000000000000000000000000000000075
:100B80000000000000000000000000000000000065
:100B90000000000000000000000000000000000055
:100BA0000000000000000000000000000000000045
:100BB0000000000000000000000000000000000035
:100BC00000000000000000000000000000808080A5
:100BD0008080C0C0C0C0C0C0E0E0E0606060202095
:100BE00020200000000000000000000000000000C5
:100BF00000000000000000000000000000000000F5
:100C000000000000000000000000000000000000E4
:100C100000000000000000000000000000000000D4
:100C200000000000000000000000000000000000C4
:100C300000000000000000000000000000000000B4
:100C400080C0C0E0F0F0F8FC7C7E3E3F1F1F0F0F1D
:100C500007070703030101010000000000808080F6
:100C600080C0C0C0C0C0C0E0600000000000000044
:100C70000000000000000000000000000000000074
:100C80000000000000000000000000000000000064
:100C90000000000000000000000000000000000054
:100CA0000000000000004080800000000000107084
:100CB000E0E0E0C0C0C0C0C0E0F078783C1E1E0F8D
:100CC0000F07070301010000008080C0C0E0E0E0E2
:100CD000F07078383C3C9C9E9ECECFCF67E7E7F320
:100CE000F3F3F9F9391804000000000000000000D7
:100CF00000000000000000000000000000000000F4
:100D000000000000000000000000000000000000E3
:100D100000000000000000000000000000000000D3
:100D20000000000000000000030306060C08081085
:100D3000100103070F1F1F3120400000006060708A
:100D4000F0F8F89C9C8E8E870703030301010000D6
:100D500000020200018181C1E0F0F8FCFE7F3F1F2C
:100D60000F03010000000000000000000000000070
:100D70000000000000000000000000000000000073
:100D80000000000000000000000000000000000063
:100D90000000000000000000000000000000000053
:100DA000C0C0404040C0C000000000C040404040C3
:100DB0004000000000C040404040C0000000C000B3
:100DC000000000C10101C1414343C3030307C7073A
:100DD0000707070707C7C7070303C1414040400093
:100DE0000000C0404040C0C0000000C040400000C3
:100DF00000000000000000000000000000000000F3
:100E000000000000000000000000000000000000E2
:100E100000000000000000000000000000000000D2
:100E20000F1F00041C3F67000000001F1212121267
:100E300002000000001F04040404070000001F104B
:100E40001010101F00001F1312121F1F00001F1090
:100E500010101000001F1F0000001F1010101010B5
:100E600000000F1810101F1F0000001F03020000D9
:100E70000000000000000000000000000000000072
:100E80000000000000000000000000000000000062
:100E90000000000000000000000000000000000052
:100EA000FCFC040404E4000000FC242424FCFC00FA
:100EB0000000F818103018F8000000FCFC2424246E
:100EC00024000000FCFC0424E4BC000000001C041E
:100ED0000404E4E000000000000000000000000046
:100EE0000000000000000000000000000000000002
:100EF00000000000000000000000000000000000F2
:100F000000000000000000000000000000000000E1
:100F100000000000000000000000000000000000D1
:100F200001010101010100000001000000010100B8
:100F300000000100000000010000000101010101AA
:100F4000010000000101000000010100000001019A
:100F5000010101010000000000000000000000008D
:100F60000000000000000000000000000000000081
:100F70000000000000000000000000000000000071
:100F80000000000000000000000000000000000061
:100F90000000000000000000000000000000000051
:100FA0000000000000000000000000000000000041
:100FB00000000000000000000080C0C0C0E0E0F0C1
:100FC000F0F0F0F8F8F8F8F8F8F8F8F8F8F8F0F0C9
:100FD000F0F0E0E0C0C080800000000000000000F1
:100FE0000000000000000000000000000000000001
:100FF00000000000000000000000000000000000F1
:1010000000000000000000000000000000000000E0
:1010100000000000000000000000000000000000D0
:1010200000000000000000000000000000000000C0
:1010300080C0E0F0F8FCFEFFFFFFFFFFFFFFFFFFB7
:10104000FFFF7F3F1F1F1F0F0F0F1F1F1F3F7FFF40
:10105000FFFFFFFFFFFFFFFFFFFEFEFCF8F0E0C019
:101060000000000000000000000000000000000080
:101070000000000000000000000000000000000070
:101080000000000000000000000000000000000060
:101090000000000000000000000000000000000050
:1010A00000000000000000000000000080E0FCFEE6
:1010B000FFFFFFFFFFFFFFFFFFFFFFFFFFFFFFFF40
:1010C000C7000000000000000000000000000081D8
:1010D000FFFFFFFFFFFFFFFFFFFFFFFFFFFFFFFF20
:1010E000FFFEF8E00000000000000000000000002B
:1010F00000000000000000000000000000000000F0
:1011000000000000000000000000000000000000DF
:1011100000000000000000000000000000000000CF
:101120000000000000000000000000F8FFFFFFFFCB
:10113000FFFFFFFFFFFFFFFFFFFFFFFFFFFFFFFFBF
:10114000FFFEFCF8E0C080800080C0E0F0F8FEFF09
:10115000FFFFFFFFFFFFFFFFFFFFFFFFFFFFFFFF9F
:10116000FFFFFFFFFF000000000000000000000084
:10117000000000000000000000000000000000006F
:10118000000000000000000000000000000000005F
:10119000000000000000000000000000000000004F
:1011A00000000000000000000000003FFFFFFFFF04
:1011B000FFFFFFFFFF1F0703010100000000000009
:1011C000000000010101C1FFFFFB810101010000DE
:1011D000000000000000010103070FFFFFFFFFFFF9
:1011E000FFFFFFFFFF000000000000000000000004
:1011F00000000000000000000000000000000000EF
:1012000000000000000000000000000000000000DE
:1012100000000000000000000000000000000000CE
:10122000000000000000000000000000030F3FFF6E
:10123000FFFFFFFFFFFCF0E0C08080800000008027
:1012400080C0C0E0F8FEFFFFFFFFFFFEF0E0C080BF
:101250008000000000008080C0E0F8FFFFFFFFFF7B
:10126000FF7F3F0F010000000000000000000000B1
:10127000000000000000000000000000000000006E
:10128000000000000000000000000000000000005E
:10129000000000000000000000000000000000004E
:1012A000000000000000000000000000000000003E
:1012B00001070F1F3F7FFFFFFFFFFFFFFFFFFFFF44
:1012C000FFFFFFFFFFFFFFFFFFFFFFFFFFFFFFFF2E
:1012D000FFFFFFFFFFFFFFFFFFFF7F7F3F1F0F03AA
:1012E00001000000000000000000000000000000FD
:1012F00000000000000000000000000000000000EE
:1013000000000000000000000000000000000000DD
:1013100000000000000000000000000000000000CD
:1013200000000000000000000000000000000000BD
:10133000000000000000000001030307070F0F0F6B
:101340001F1F1F1F1F1F1F1F1F1F1F1F1F1F1F1FAD
:101350001F0F0F0F0707030101000000000000002E
:10136000000000000000000000000000000000007D
:10137000000000000000000000000000000000006D
:10138000000000000000000000000000000000005D
:10139000000000000000000000000000000000004D
:1013A00000000000000000000000000000E0E0E09D
:1013B000E0E0E0E0E0E0E0E0E0E0E0E0E0E0E0E02D
:1013C000E0E0E0E0E0E0E0E0E0E0E0E0E0E0E0E01D
:1013D000E0E0E0E0E0E0E0E0E0E0E0E0E0E0E0E00D
:1013E000E0E0E0000000000000000000000000005D
:1013F00000000000000000000000000000000000ED
:1014000000000000000000000000000000000000DC
:1014100000000000000000000000000000000000CC
:1014200000000000000000000000000000FFFFFFBF
:10143000000000000000000000000080808080802C
:10144000808000000000000000000000000000009C
:10145000000000000000000000000000000000008C
:10146000FFFFFF000000000000000000000000007F
:10147000000000000000000000000000000000006C
:10148000000000000000000000000000000000005C
:10149000000000000000000000000000000000004C
:1014A00000000000000000000000000000FFFFFF3F
:1014B00000000000000000FFFFFFFFFFFF0F0F0F05
:1014C0000F1F1F3F7FFFFEFEFCF8E0000000000042
:1014D000000000000000000000000000000000000C
:1014E000FFFFFF00000000000000000000000000FF
:1014F00000000000000000000000000000000000EC
:1015000000000000000000000000000000000000DB
:1015100000000000000000000000000000000000CB
:1015200000000000000000000000000000FFFFFFBE
:1015300000000000000000FFFFFFFFFFFF80808031
:101540008080C0C0F0FFFFFFFFFF3F0000000000F1
:10155000FEFEFEFEFEFCFC7E3F3F3F3F1F00000004
:10156000FFFFFF000000000000000000000000007E
:10157000000000000000000000000000000000006B
:10158000000000000000000000000000000000005B
:10159000000000000000000000000000000000004B
:1015A00000000000000000000000000000FFFFFF3E
:1015B00000000000000000FFFFFFFFFFFF0F0F0F04
:1015C0000F0F0F0F070703030100000000000000CA
:1015D000FFFFFFFFFFFF0100000000000000000010
:1015E000FFFFFF00000000000000000000000000FE
:1015F00000000000000000000000000000000000EB
:1016000000000000000000000000000000000000DA
:1016100000000000000000000000000000000000CA
:1016200000000000000000000000000000FFFFFFBD
:1016300000000000000000FFFFFFFFFFFF000000B0
:10164000000000000000000000000000000000009A
:10165000FFFFFFFFFFFF0000000000000000000090
:10166000FFFFFF000000000000000000000000007D
:10167000000000000000000000000000000000006A
:10168000000000000000000000000000000000005A
:10169000000000000000000000000000000000004A
:1016A00000000000000000000000000000FFFFFF3D
:1016B0000000000000000001010101010000000025
:1016C000000000000000000000000000000000001A
:1016D0000101010101000000000000000000000005
:1016E000FFFFFF00000000000000000000000000FD
:1016F00000000000000000000000000000000000EA
:1017000000000000000000000000000000000000D9
:1017100000000000000000000000000000000000C9
:1017200000000000000000000000000000070707A4
:101730000707070707070707070707070707070739
:101740000707070707070707070707070707070729
:101750000707070707070707070707070707070719
:101760000707070000000000000000000000000064
:101770000000000000000000000000000000000069
:10178000000000000000000000AE05010902A101F8
:1017900085020901A1000509190129051500250186
:1017A00095057501810295017503810105010930D7
:1017B00009311581257F9502750881060938158143
:1017C000257F950175088106050C0A3802158125CB
:1017D0007F950175088106C0C005010980A10185BA
:1017E0000319012AB700150126B70095017510816C
:1017F00000C0050C0901A101850419012AA00215E8
:101800000126A002950175108100C005010906A1FD
:10181000018505050719E029E715002501950875DB
:101820000181020507190029EF1500250195F075C2
:101830000181020508190129059505750191029597
:101840000175039101C005010906A101050719E011
:1018500029E7150025019508750181029501750894
:1018600081010507190029FF150026FF009506755F
:101870000881000508190129059505750191029552
:101880000175039101C009023B00020100A0FA09A1
:10189000040000010301010009211101000122409F
:1018A000000705810308000A090401000103000084
:1018B0000009211101000122BC000705820320005C
:1018C0000A1201100100000008EDFE606001000135
:1018D00002030104033000000012036B006500796D
:1018E0000062006F00610072006400000016037166
:1018F000006D006B006200750069006C006400659B
:101900000072000000040309040011241FBECFEF81
:10191000DAE0DEBFCDBF04B603FE27C080914607E4
:1019200090914707A0914807B09149078730904BA5
:10193000A740B04BD1F4109246071092470710927F
:1019400048071092490714BE84B7877F84BF0FB63B
:10195000F894A8958091600088618093600010924F
:1019600060000FBEE0E0F8E3099527E0ACEAB1E0E3
:1019700001C01D92A634B207E1F711E0A0E0B1E08A
:10198000EEE5F6E602C005900D92AC3AB107D9F744
:101990000E94A0290C94F5320C940000CF93DF93A1
:1019A0004091440350914503A6E4B3E030E020E0C9
:1019B00061E070E0FC01E20FF31FE491FD91EF178D
:1019C00091F0ED012197E883F901C6E0F695E795DE
:1019D000CA95E1F7EB0102C0CC0FDD1FEA95E2F7F3
:1019E000FE014C2B5F2B2F5F3F4F2115D4E03D07AD
:1019F00009F75093450340934403DF91CF91089535
:101A0000E8EDF0E080818E7F80831092E2001092FA
:101A1000DA001092E100A0EEB0E08C9181608C932E
:101A200080818F77808319BCA7EDB0E08C918E7F89
:101A30008C9380818F7E808310921503089520916E
:101A4000E4003091E50095E6A9012091EC00822F99
:101A5000817020FF06C08091E80080FF06C080E012
:101A600008952091E80022FD1AC080913A0388234E
:101A700089F0853089F08091EB0085FD0FC02091C1
:101A8000E4003091E50042175307F9F29150E1F676
:101A900084E0089582E0089583E0089581E0089548
:101AA000EF92FF920F931F93CF937C018B010E94C3
:101AB0001F0DC82F811117C08091E80085FD0BC054
:101AC0008091E8008E778093E8000E941F0D8823A4
:101AD00099F3C82F08C0F70181917F018093F1002D
:101AE0000150110949F78C2FCF911F910F91FF9051
:101AF000EF90089580913C0387FF13C08091E80028
:101B000082FF06C08091E8008B778093E80004C0D4
:101B100080913A038111F2CF089580913A0388238E
:101B2000D9F38091E80080FFF8CF8091E8008E77AC
:101B3000ECCF982F9093E900242F762F50E089174F
:101B400031F07091EC002091ED005091F00021FDFA
:101B500007C09F5F973071F78093E90081E0089597
:101B60003091EB003E7F3093EB003091ED003D7FF4
:101B70003093ED003091EB0031603093EB007093C7
:101B8000EC002093ED005093F0002091EE0027FD33
:101B9000E0CF80E00895CF92DF92EF92FF920F9313
:101BA0001F93CF93DF93C8EDD0E088818F7E888329
:101BB000E7EDF0E080818160808384E082BF81E096
:101BC0008093150388818E7F888302EE10E0F801F0
:101BD00010821092DA0081EEC82ED12CF60110820C
:101BE00088818F77888388818068888388818F7DCA
:101BF000888319BC10923A0310923B031092390368
:101C00001092380390EEE92EF12CF70180818B7F42
:101C1000808388818160888342E060E080E00E9468
:101C2000990DF60180818E7F8083F801808181602B
:101C30008083808188608083F70180818E7F8083AC
:101C4000888180618883DF91CF911F910F91FF90F0
:101C5000EF90DF90CF900895FC0180914203909126
:101C6000430386179707A0F06115710529F4909139
:101C7000E8009E779093E80090E06115710551F4BB
:101C8000911108C08091E80082FF34C080E008957F
:101C9000BC01F2CF80913A038823C1F18530C1F1B4
:101CA0008091E80083FD30C08091E80082FDEACF9A
:101CB0008091E80080FFE1CF8091F3002091F20055
:101CC000382F6115710519F02830310558F091E071
:101CD0002830310509F090E02091E8002E7720931C
:101CE000E800CBCF81918093F100615071092F5FA3
:101CF0003F4FE7CF80913A03882341F0853041F090
:101D00008091E80083FFBECF81E0089582E00895CE
:101D100083E0089580913A03843011F482E00895BD
:101D200081E00895089580911703089590910B0321
:101D3000803F41F480910C0387FD10920C0399239E
:101D400071F00895813F29F480910C031816ACF3CB
:101D5000F6CF823F81F497FFF2CF10920B03809170
:101D60000C0390910D03892B90910E03892B49F759
:101D7000109206030895833F19F4191674F3DFCF08
:101D8000893F39F480910D031816CCF610920D039B
:101D9000D6CF8A3F29F480910D0387FFD0CFF6CFAD
:101DA0008B3F39F480910E0387FFC9CF10920E0349
:101DB000C6CF8C3F29F480910E031816BCF3BFCF19
:101DC000843F31F480910A038E7F80930A03B7CF5A
:101DD000853F21F480910A038D7FF7CF863F21F460
:101DE00080910A038B7FF1CF873F21F480910A0312
:101DF000877FEBCF883F21F480910A038F7EE5CF68
:101E00008D3F31F480918F028E7F80938F0297CF28
:101E10008E3F21F480918F028D7FF7CF8F3F09F0A5
:101E20008ECF80918F028B7FF0CF80918F0280FDCB
:101E300016C081FD16C082FD16C08091060388235E
:101E4000A1F0883280F428E0829FC001112468E26A
:101E500070E00E94C731862F672B39F0089582E029
:101E6000089584E0089588E0089581E008958091C0
:101E70008F0280FD14C081FD14C082FD16C08091C8
:101E80000603882381F0843180F422E3829FC0011D
:101E9000112464E170E00E94C731862F08958CE020
:101EA000089589E1089585E0089582E30895803FCB
:101EB00031F40E94370F819580930C030895813F80
:101EC00019F40E94370FF8CF823F31F40E94370F88
:101ED000819580930B030895833F19F40E94370F77
:101EE000F8CF893F29F40E94150F80930D030895C0
:101EF0008A3F21F40E94150F8195F7CF8B3F31F473
:101F00000E94150F819580930E0308958C3F19F45C
:101F10000E94150FF8CF843F31F480910A0381604D
:101F200080930A030895853F21F480910A0382601B
:101F3000F7CF863F21F480910A038460F1CF873F79
:101F400021F480910A038860EBCF883F21F48091CF
:101F50000A038061E5CF8D3F31F480918F0281606B
:101F600080938F0208958E3F21F480918F028260CA
:101F7000F7CF8F3FB9F780918F028460F1CF0F9335
:101F80001F93CF9343EB52E0AAE9B2E090E0C4E0A4
:101F9000CA0F6D9130E020E070E0FB01022E02C01C
:101FA000F595E7950A94E2F7E0FD0EC02F5F3F4FED
:101FB0002430310591F7485F5F4FCA13EACF80E0C4
:101FC000CF911F910F910895F901EE0FFF1FE40FBC
:101FD000F51F059114918017910741F781E0F0CF2B
:101FE000CF93C82F8CE20E94BF0F882321F08C2F43
:101FF000CF910C94BF0F80E0CF9108959C014FB713
:10200000F8948091F8029091F902A091FA02B091AF
:10201000FB024FBF821B930B0895CF92DF92EF928A
:10202000FF926C01EE24FF2420E0C114D104E104EE
:10203000F10419F0C701B60120E1C72ED82EE92E10
:10204000FF24C114D104E104F10419F0285FC70191
:10205000B6016B017C0154E0F694E794D794C794E1
:102060005A95D1F7C114D104E104F10419F02C5FA1
:10207000C701B6016B017C0142E0F694E794D79466
:10208000C7944A95D1F7C114D104E104F10419F0C1
:102090002E5FC701B6019695879577956795672B53
:1020A000682B692B09F02F5F822FFF90EF90DF9054
:1020B000CF90089580918A02811110928A0208952A
:1020C0008091890290918802892B90918702892BB7
:1020D0008093AC0190918A029923A1F0892B80937F
:1020E000AC0180912201882341F18091940287FF05
:1020F00024C08EE1EEEAF1E090E0815000F591110C
:102100000E945A10E0919702F09198023097E1F006
:1021100080912201882359F08091940287FF07C0A3
:102120008091AC018093AD0185E08093AC01028089
:10213000F381E02D8CEA91E0099486E0DBCF2191D8
:102140002223D9F29F5FD9CF08959091220199233C
:10215000D1F09091940297FF16C0E82FE695E6958E
:10216000E695EE31E0F4F0E0E455FE4F282F2770BD
:1021700081E090E001C0880F2A95EAF7809592816E
:10218000892382830895EEEAF1E09191891303C0D7
:10219000DF0111971C9291E0E43BF907B1F7089534
:1021A000909122019923C1F09091940297FF14C05D
:1021B000E82FE695E695E695EE31F8F4F0E0E45583
:1021C000FE4F877021E030E001C0220F8A95EAF7C8
:1021D0008281822B82830895AEEAB1E0EFEF90E036
:1021E0002D91821751F0EF3F19F4211101C0E92F11
:1021F0009F5F9630A9F7EF3F09F408950E2E000C6B
:10220000FF0BE455FE4FE6CF990F990F890F982FDA
:10221000977086958695869525E0829FF00111241A
:10222000E458FD4F50E040E080E0219130E0092E7D
:1022300002C0369527950A94E2F721703327042EC1
:1022400001C0220F0A94EAF7822B4F5F5F4F45309F
:10225000510559F70895990F990F890F982F977085
:1022600041E001C0440F9A95EAF7869586958695D8
:1022700095E0899FF0011124E458FD4F30E020E003
:1022800070E05191DF011197CB01022E02C09695AB
:1022900087950A94E2F781708195852784238527A5
:1022A0008C932F5F3F4F2530310559F7089580916A
:1022B0007B0290914A02981301C008958F5F877046
:1022C000FACF882341F080959091890289238093E9
:1022D00089020C9460100895882339F09091890246
:1022E000982B909389020C946010089520914002DD
:1022F000309141022817390771F090934102809381
:102300004002E0919702F0919802309721F000840A
:10231000F185E02D0994089520913E0230913F020D
:102320002817390771F090933F0280933E02E091A5
:102330009702F0919802309721F00680F781E02D06
:1023400009940895E0919702F0919802309721F056
:102350000190F081E02D099480E00895FA01811147
:1023600001C0FB0109948091A402982F9E7F29F45B
:10237000817082608093A40208958635E8F38170AD
:102380008465F8CFAF92BF92DF92EF92FF920F93E6
:102390001F93CF93DF93082F162FE901E42FF0E06E
:1023A000E455FF4F611110C0E4915E2F4E2F498319
:1023B000E8835A83DF91CF911F910F91FF90EF90A7
:1023C000DF90BF90AF900895E62EF12C4491D42E6B
:1023D000E42FF0E026E0829FC00111242FEF30E0CF
:1023E000B9010E94B331802F90E0880F991F55E505
:1023F000569FD001579FB00D11248A1B9B0B982F1D
:10240000990F890F5901AE18BF08AE9ED001AF9E3B
:10241000B00DBE9EB00D11245B2F189F80011124BA
:10242000012F11275901A01AB10AAE9E8001AF9E5B
:10243000100DBE9E100D11245901A81AB108AE9CB2
:10244000C001AF9C900DBE9C900D1124892F99273F
:10245000281B390B2E9FC0012F9F900D3E9F900D82
:102460001124E92F62307105A1F050F46115710556
:1024700009F49DCF6130710581F0EB2F512F97CF7B
:102480006430710569F080F06630710509F48FCF12
:10249000F4CFE42F4B2F592F8ACFE42F412F87CF32
:1024A000EB2F542F492F83CF4B2F5D2DE12F7FCF63
:1024B0009091940292FF06C0282F28712830F9F4D9
:1024C000877F846093FF06C0282F28712831F1F49C
:1024D000877E84612091950220FF06C0382F3871D5
:1024E0003830D9F4877F816021FF06C0282F2871FA
:1024F0002831D1F4877E816194FD877E0895282F4D
:1025000024712430F9F68B7F8860DCCF282F24716A
:10251000243101F78B7E8861DDCF382F3171313066
:1025200019F78E7F8860E0CF282F2171213121F7A4
:102530008E7E8861E1CFCF93DF9324E0829FC0013C
:102540001124FC01E70FF11DEE0FFF1FEE0FFF1F1F
:10255000E60FF11DEE0FFF1FED54FD4FC591D49115
:10256000CE01C238D105B9F1E8F5C133D10509F47E
:1025700099C050F5C932D10509F48DC0CA32D105D0
:1025800009F497C0C11531E5D30708F0BFC0C115E4
:1025900020E5D20708F016C1C83ED10508F09DC05D
:1025A000C13ED10568F5C83AD10508F089C0C53AE1
:1025B000D10508F0FFC0C130D10511F1209709F411
:1025C00043C02497E8F440C0C533D10509F45CC08A
:1025D000C933D105B9F620919402237089F080EEB9
:1025E00090E00EC0C33ED10591F168F4C03ED10524
:1025F000F9F0C23ED10531F62091940222FD20C0AF
:10260000DF91CF910895C63ED10561F1C73ED10556
:1026100081F1C43ED10509F0B5CF2091950221FF8B
:10262000EFCF8091940284FD0FC087EE90E0E8CF59
:102630002091940220FD12C13091950230FFE0CF2D
:1026400083EE90E024FFDCCF90E080E0D9CF2091B2
:10265000940222FD06C13091950230FDC0CF24FFC7
:10266000CFCFF2CF2091940223FFCACF24FDECCF2D
:10267000DCCF2091940223FDF7C03091950231FF09
:10268000EECF84EE90E0BCCF2091940225FFB8CF2E
:1026900089E290E0B5CF2091940225FFB1CF85E388
:1026A00090E0AECF2091940226FFAACF8AE290E07C
:1026B000A7CF2091940226FFA3CF81E390E0A0CF83
:1026C000CF3BD10508F6C85AD0E0CC0FDD1FCF5A5A
:1026D000DE4F88819981946493CFC11530E2D3078E
:1026E00060F4C11521E0D20708F08ACFCE019065D1
:1026F000C03FD10508F084CFA7CFC11530E4D30780
:1027000008F4A2CFCE019F70906A7ACFC11585E5FB
:10271000D80710F5C11524E5D20708F088C0C11507
:1027200033E5D30708F06FC0C11582E5D80708F478
:1027300065C09E012370332781E090E002C0880FBE
:10274000991F2A95E2F7C695C69520E2C29FE0013F
:1027500011248C2B9D2B50C0C11529E5D207A0F464
:10276000C11538E5D30708F067C0C11586E5D8075D
:1027700008F06ACF8C2F0E94581290E0982F88277B
:1027800088279F7190623CCFC1152AE5D20708F4D3
:1027900058C0CE0190568115904208F055CF8D2F2C
:1027A0008F710E94581290E0982F882788279F7178
:1027B0008C2BE8CFC55AD0E0C25BDE4F888190E019
:1027C00090641ECF9E01E4E036952795EA95E1F7E7
:1027D00023708C2F86958695837030E2839FC0018D
:1027E0001124922BC37021E030E002C0220F331F6E
:1027F000CA95E2F7822B932B9C6802CF9C2F8827E7
:10280000816F906AFDCE9E012370332781E090E0B6
:1028100002C0880F991F2A95E2F7C695C69530E247
:10282000C39FE00111248C2B9D2B9A68E9CE9C2F2D
:102830008827846F906AE4CE9C2F8827806F906AE7
:10284000DFCE8C2F8F700E94581234E0D695C7953A
:102850003A95E1F7CF709C2F9069D2CE89E390E052
:10286000CFCE82EE90E0CCCE86EE90E0C9CEBF9285
:10287000CF92DF92EF92FF920F931F93CF93DF934C
:102880008C01C090B202D090B302E090B402F090FC
:10289000B50280918B0290918C02A0918D02B09133
:1028A0008E02C82AD92AEA2AFB2ACFE1D0E0BC2E20
:1028B000D701C6010C2E04C0B695A79597958795AC
:1028C0000A94D2F780FD0EC0219788F7B12C8B2D8A
:1028D000DF91CF911F910F91FF90EF90DF90CF90FC
:1028E000BF900895B8018C2F0E949B12019761F34D
:1028F000EECFCF93DF93EC010E943714BE01DF913E
:10290000CF910C949B120E947914292F2F709295CD
:102910009F7092509E3078F4E92FF0E0E950FD4C22
:102920000C94DB31803F19F020F4883E20F481E0E4
:102930000895843FE1F380E00895883EC0F3813F2D
:10294000D1F7F5CF822F8695869586950895CF92FB
:10295000DF92EF92FF920F931F93CF93DF936C015F
:102960007B0164E670E088E70E94B630EC0197FDD9
:1029700012C010E000E0F601E00FF11F849164E660
:1029800070E00E941231EC01892B29F40F5F1F4F78
:102990000E151F0581F70E949531CE01DF91CF9171
:1029A0001F910F91FF90EF90DF90CF9008952FB778
:1029B000F8948091F8029091F902A091FA02B091F6
:1029C000FB022FBF80569947AE4FBF4F8093FC024A
:1029D0009093FD02A093FE02B093FF02809100034A
:1029E000811108C062E070E081EB92E00E94A714C0
:1029F000892B19F080910003089581E080930003F2
:102A0000F9CFCF93DF9300D00F92CDB7DEB790917F
:102A10003A03943019F589837B836A8382E080933B
:102A2000E9008FEF9091E800815095FD06C095ED8B
:102A30009A95F1F700008111F5CF8091E80085FFAC
:102A40000DC050E040E063E070E0CE0101960E94CE
:102A5000500D8091E8008E778093E8000F900F90E2
:102A60000F90DF91CF910895CF93DF93EC010E94F7
:102A70008A0E823011F0843031F4BE0184E0DF919F
:102A8000CF910C940115DF91CF910895BC0183E0A3
:102A90000C940115CF93DF93EC010E948A0E8230D3
:102AA00011F08430F9F482E08093E9008FEF909187
:102AB000E800815095FD06C095ED9A95F1F700006C
:102AC0008111F5CF8091E80085FF0CC050E040E017
:102AD00066E070E0CE010E94500D8091E8008E7794
:102AE0008093E800DF91CF910895CF93DF93EC01BD
:102AF0000E948A0E823011F08430B9F58091220153
:102B00008823B1F18091940287FF32C060E282E0B5
:102B10008093E9008FEF9091E800815095FD06C009
:102B200095ED9A95F1F700008111F5CF8091E800BD
:102B300085FF1BC08091220170E050E040E08111D0
:102B400004C050E040E068E070E0CE010E94500D0B
:102B50008091E8008E778093E80080E2FE01A8E192
:102B6000B3E001900D928A95E1F7DF91CF9108953E
:102B700068E081E0CDCF81E08093E00080E2809347
:102B8000D8001092C9008FE19EE40197F1F700C0D0
:102B9000000087E090EBDC018093460790934707A5
:102BA000A0934807B093490788E19CE00FB6F894DA
:102BB000A895809360000FBE90936000FFCF809136
:102BC000A40280FD0AC0E2EDF1E0118210821282BF
:102BD000339651E0E93FF507C1F7819A31B33D7F64
:102BE00021B322604FB7F89482ED91E0FC0151913E
:102BF000CF0168E021BB000000C057FF31BB550F7B
:102C0000000000C000C000C031BB00C06A9591F751
:102C1000F1E0893F9F0751F74FBF8FE594E001979F
:102C2000F1F700C0000008958F929F92AF92BF927B
:102C3000CF92DF92EF92FF920F931F93CF93DF9388
:102C4000FC01B280948081E08483C9EFD1E002ED81
:102C500011E08BE4A82E88248394EE24EA94F12CCE
:102C60002BE4C22ED12C91101DC01B821A82980118
:102C70004A81698188810E94C21125960D5F1F4F8C
:102C800082E0CA33D80779F7DF91CF911F910F9176
:102C9000FF90EF90DF90CF90BF90AF909F908F907C
:102CA0000C94DF152B81222309F121502B833C81C9
:102CB0008A2D821B311101C0822F9091A702899F1A
:102CC000C0011124B6010E94B3316A83211104C0EE
:102CD000332311F01C82AB8222E02B1540F280914D
:102CE000A50288838091A6028983C1CF0E942D32DC
:102CF000823091400CF0BBCF82E08B15C0F40E9473
:102D00002D32B7010E94C731888322E02B1590F441
:102D10000E942D322091A6022695622F70E00E941B
:102D2000C731280F29831A82AB828C82A0CF809171
:102D3000A502EACF2091A602F5CFEF92FF921F9352
:102D4000CF93DF93EC0182EDE82E81E0F82E10E0C6
:102D50008C8197014091A7026091A602810F0E9489
:102D6000C2111D5E83E0E80EF11C173F89F70E9437
:102D7000DF159A818C8190FF08C08F5F8C83DF9173
:102D8000CF911F91FF90EF9008958150F7CFBF92A0
:102D9000CF92DF92EF92FF920F931F93CF93DF9327
:102DA000FC018281DD24DA9480FD02C0DD24D3940D
:102DB00002ED11E0D0E0C0E02DE0B22EF80111826A
:102DC0001082128294E0E92EF12CC12C8091CF0167
:102DD0008C0D8E300CF43DC06B2D0E94A531892FD7
:102DE000082E000C990B8C179D0791F48091A70277
:102DF0008E9DA0018F9D500D112455954795559599
:102E0000479598016091A6028091A5020E94C21187
:102E1000CD0CF1E0EF1AF108C9F621960D5F1F4FB6
:102E2000CD30D10559F60E94DF158091CF0191E098
:102E3000D91215C0811111C08CE08093CF01DF91B0
:102E4000CF911F910F91FF90EF90DF90CF90BF90A7
:102E5000089587FFC5CF835FC3CF8150EECF90E049
:102E60000196BE010E94C731E8CF0F931F93CF9305
:102E7000DF93C2EDD1E0FE011182108212823396FF
:102E800081E0E93FF807C1F710E000E08091D00150
:102E9000082E000C990B081719078CF1809110016E
:102EA000082E000C990B801791074CF19E01409160
:102EB000A7026091A6028091A5020E94C2110F5F35
:102EC0001F4F23960D30110509F70E94DF158091E1
:102ED0000F019091D001980F9093D0012091100193
:102EE000280F20931001121614F49C301CF08195C9
:102EF00080930F01DF91CF911F910F910895198257
:102F000018821A82DCCFEF92FF920F931F93CF9318
:102F1000DF93EC018C819D810196817099279D83BF
:102F20008C8382EDE82E81E0F82E10E005E5812FFC
:102F300086952C813D81820F932F911D8170970181
:102F40004091A7026091A602809F802D11240E94CB
:102F5000C2111F5F83E0E80EF11C1D3041F7DF91C5
:102F6000CF911F910F91FF90EF900C94DF15EF928E
:102F7000FF920F931F93CF93DF938C01C2EDD1E0AB
:102F8000F12CE12CF80194816091A6028091A502B8
:102F9000F6E0EF16F104FCF49923F9F09E0140915C
:102FA000A7020E94C2112FEFE21AF20A23968DE0C7
:102FB000E816F10439F70E94DF15F801848190E0EA
:102FC0000196817099278483DF91CF911F910F9192
:102FD000FF90EF900895992309F39E0140E0E1CF1F
:102FE0009091A40290FF0CC0E2EDF1E08183608338
:102FF0004283339691E0E93FF907C1F70C94DF155E
:1030000008950F931F93CF93DF9300D00F92CDB706
:10301000DEB78C018091D10181110AC09E012F5F22
:103020003F4F4FEF6FEF0E94C2118A818093D10111
:10303000F8016481613069F08091D10140E066233C
:1030400061F040E0623011F44091D10180E060E035
:1030500004C06091D10140E080E00E94F017F801C7
:10306000848190E0019663E070E00E94C731848320
:103070000F900F900F90DF91CF911F910F910895B6
:10308000CF93DF9300D00F92CDB7DEB79091A4021B
:1030900090FF0AC09E012F5F3F4F0E94C2114B81DB
:1030A00069818A810E94F0170F900F900F90DF9135
:1030B000CF910895CF93DF93EC01EC81F0E0EF54D2
:1030C000FE4F4491E4EAF2E0628181810E9440185F
:1030D0008C818F5F8C83DF91CF910895CF93DF93A5
:1030E000EC01E4EAF2E0438162818C810E944018A5
:1030F0008C818F5F8C83DF91CF910895CF9384E093
:1031000090E00E944A32C82F81E290E00E944A3249
:10311000982F8C2FCF910895CF92DF92EF92FF924C
:103120006B017C010E94B311B701A60188E090E019
:10313000FF90EF90DF90CF900C9470328091A802B6
:10314000833018F48F5F8093A8026091A40270917D
:10315000A5028091A6029091A7020C948C188091F0
:10316000A802882319F081508093A8026091A402DC
:103170007091A5028091A6029091A7020C948C18E0
:103180005F926F927F928F929F92AF92BF92CF92F7
:10319000DF92EF92FF920F931F93CF93DF9300D0B4
:1031A0000F92CDB7DEB7182F762E042F622E909196
:1031B000A40290FF29C0E92FE695AE2FB0E0AD5DE7
:1031C000BE4F8C918093A9029E7F923081F59E0123
:1031D0002F5F3F4F812F0E94C2114B8169818A81ED
:1031E0000E94F0171093A5027092A6020093A70206
:1031F000662051F06091A4027091A5028091A60210
:103200009091A7020E948C180F900F900F90DF9161
:10321000CF911F910F91FF90EF90DF90CF90BF90D3
:10322000AF909F908F907F906F905F9008958230C5
:1032300019F40091A702D6CF863019F41091A50297
:10324000D1CF8930D9F3893169F6E9518E2F817058
:10325000582EE695F0E0E455FE4FA590B490BB24BF
:1032600082EDE82E81E0F82ED12CC12C9DE0892E34
:10327000912CC601B4010E94B331812F511013C0AB
:10328000860F9701402F672D0E94C211CA0CDB1CCC
:1032900083E0E80EF11C89EFE81681E0F80649F7B3
:1032A0000E94DF159FCF861BECCFE4EAF2E043815A
:1032B00028E0421B08F440E021E0628181810C9407
:1032C000C018E4EAF2E0438128E0420F08F44FEF2F
:1032D00021E0628181810C94C018E4EAF2E062810D
:1032E00028E0621B08F460E021E0438181810C94B6
:1032F000C018E4EAF2E0628128E0620F08F46FEFA0
:1033000021E0438181810C94C018E4EAF2E08181DC
:1033100021E04381628188500C94C018E4EAF2E015
:10332000818121E043816281885F0C94C018E4EAC6
:10333000F2E083E0808311828FEF828383831482A3
:1033400060817181828193810C948C186CEE7EEF88
:1033500090E080E00E947C3260E082E090E00E9499
:103360005E3260E083E090E00E945E3210928B0259
:1033700010928C0210928D0210928E0260E084E016
:1033800090E00E945E3260E081E290E00E945E3256
:1033900060E085E090E00E945E3260E086E090E0D0
:1033A0000E945E326FEF87E090E00E945E3240E064
:1033B00050E0BA0188E090E00E94703260E08DE059
:1033C00090E00E945E3240E050E0BA0188E190E077
:1033D0000E94703260E087E190E00E945E3240E03F
:1033E00050E0BA018CE190E00E94703260E080E22F
:1033F00090E00E945E3240E050E0BA018FE090E041
:103400000E94703240E050E0BA0183E190E00C94F9
:10341000703278941F921FB61F9211248F939F933E
:10342000AF93BF938091F8029091F902A091FA02B4
:10343000B091FB020196A11DB11D8093F8029093FB
:10344000F902A093FA02B093FB02BF91AF919F9152
:103450008F911F901FBE1F9018952FB7F8948091E1
:10346000F8029091F902A091FA02B091FB022FBFED
:103470000895E0919702F0919802309749F082E028
:10348000809309030480F581E02D89E093E009959C
:103490000E942D1A909305038093040308951092BF
:1034A0008802109287020E94601086E0E9E0F3E053
:1034B000DF011D928A95E9F71092060310928F02A0
:1034C0000E94391A90E080E00E948C1190E080E028
:1034D0000C9476116093B2027093B3028093B4029D
:1034E0009093B5020C944F1A0F931F9341E050E054
:1034F00060E070E004C0440F551F661F771F8A9577
:10350000D2F7CB01BA0160957095809590950091A6
:10351000B2021091B3022091B4023091B50260233F
:103520007123822393231F910F910C946A1A909117
:1035300086028095892380938602282F277071F454
:10354000282F082E000C330B9217130639F085959F
:10355000859585950E94741A1092860208950F939E
:103560001F9341E050E060E070E004C0440F551F3D
:10357000661F771F8A95D2F78091B2029091B302AD
:10358000A091B402B091B5028A019B01082B192BBE
:103590002A2B3B2BC901B8011F910F910C946A1A79
:1035A00060938B0270938C0280938D0290938E02B5
:1035B0000C944F1A1092890280912201EEEAF1E0F8
:1035C000882359F08091940287FF07C08EE1DF01C4
:1035D0001D928A95E9F70C944F1A86E0F8CF1F9355
:1035E000CF93DF93CDB7DEB7AA970FB6F894DEBFBF
:1035F0000FBECDBF8CE393E02091F100FC0121933D
:10360000CF01F3E084349F07B9F780913D03833005
:1036100009F46FC0B8F4813009F446C0823009F46F
:10362000B0C08091E80083FF87C280913C039091F5
:103630003D039A3008F080C2E92FF0E0EB5FFC4CCC
:103640000C94DB318A3009F48BC08B3009F46EC0E6
:10365000893039F780913C03813219F7809140031A
:10366000909141030297E8F68091E800877F80936C
:10367000E8008091E80082FF37C09091F3008091CC
:10368000F200029729F48091F1008B7F813021F4C0
:103690008091F100809317038091E8008B778093ED
:1036A000E8000E947A0DBDCF80913C03813A09F079
:1036B000B8CF8091E800877F8093E8008091400335
:1036C00090914103892B61F460E288E193E070E01E
:1036D0000E942C0E8091E8008B778093E800A1CFA8
:1036E00060E090E080E0F3CF80913A038111C1CF98
:1036F00098CF80913C03813A09F093CF80914003A9
:1037000090914103892B09F08CCF8091E800877F4D
:103710008093E8008091E80080FFFCCF8091220137
:103720008093F1008091E8008E77B9CF80913C03BF
:10373000813209F076CF8091400390914103892B2B
:1037400009F06FCF8091E800877F8093E8000E94A6
:103750007A0D80913E03809322010E94DA1A61CF94
:1037600080913C03813209F05CCF8091E800877F33
:103770008093E8000E947A0D80913F0380931603A6
:1037800050CF80913C03813A09F04BCF8091E80003
:10379000877F8093E8008091E80080FFFCCF8091D4
:1037A0001603BECF803899F0823809F0C5C18091E8
:1037B00040038F70873008F0BFC18093E90080918B
:1037C000EB0085FB882780F91092E90006C0809104
:1037D000380390913903911182609091E800977FAE
:1037E0009093E8008093F1001092F1008091E8003E
:1037F0008E779EC1882309F48CC1823009F09CC168
:1038000080913E0381118FC1809140038F702FEF13
:10381000280F263008F090C18093E9002091EB003A
:1038200020FF81C1933031F48091EB00806280935E
:10383000EB0079C19091EB0090619093EB0021E057
:1038400030E001C0220F8A95EAF72093EA00109237
:10385000EA008091EB008860EACF81116DC1109180
:103860003E031F778091E3008078812B8093E300F3
:103870008091E800877F8093E8000E947A0D809114
:10388000E80080FFFCCF8091E30080688093E30034
:1038900082E0111183E080933A034EC18058823058
:1038A00008F04AC180913E0390913F038C3D23E094
:1038B0009207A1F583E08A838AE289834FB7F8945F
:1038C000DE01139620E03EE051E2E32FF0E050935A
:1038D0005700E49120FF03C0E295EF703F5FEF7067
:1038E0008E2F90E0EA30C0F0C7968D939D932F5FA6
:1038F000243159F74FBF8091E800877F8093E8001B
:103900006AE270E0CE0101960E942C0E8091E800E0
:103910008B778093E80010C1C096E7CF40914003B9
:1039200050914103292F33272330310509F445C035
:1039300078F52130310509F47BC08BE390E0E6E8AF
:10394000F8E12230310509F0F7C02091E800277F27
:103950002093E8002091420330914303821793079C
:1039600008F49C0140E02115310509F070C04111B7
:103970006EC08091E80082FDC9CF80913A03882310
:1039800029F2853019F28091E80083FFF2CFBECF93
:103990002132310509F440C02232310509F0CCC092
:1039A0004115510509F44EC04130510509F0C4C01C
:1039B0008CEB90E0EAE8F7E1C8CF992781309105D8
:1039C000D9F0009771F082309105F1F0039709F07A
:1039D000B3C0E3EDF8E1E4918E2F90E0E3EDF8E180
:1039E00007C0E5E0F9E1E4918E2F90E0E5E0F9E130
:1039F000009709F4A1C0A9CFEDEEF8E1E4918E2F74
:103A000090E0EDEEF8E1F4CFE9EDF8E1E4918E2FEE
:103A100090E0E9EDF8E1ECCF4115510571F041304E
:103A2000510509F089C089E090E0E1EBF8E18DCF24
:103A300082E190E0E1ECF8E188CF89E090E0E8E90C
:103A4000F8E183CF80E490E0E6E4F8E17ECF809176
:103A50003A03882309F45ACF853009F457CF80916F
:103A6000E80083FD53CF8091E80082FD82CF8091F2
:103A7000E80080FF78CF9091F3008091F20021154B
:103A8000310519F08830910550F041E0089709F0B0
:103A900040E08091E8008E778093E80064CF449105
:103AA0004093F1003196215031090196E8CF8038DA
:103AB00009F042C08091E800877F8093E800809100
:103AC0003B038093F10092CE811136C010913E03EA
:103AD000123090F58091E800877F8093E800109382
:103AE0003B030E947A0D112311F084E005C0809100
:103AF000E30087FDFACF81E080933A0342E061EC76
:103B000081E00E94990D42E261EC82E00E94990DF1
:103B100013C080913E03813079F481E0933009F045
:103B200080E0809339031092E9008091E800877F5C
:103B30008093E8000E947A0D8091E80083FF0AC01C
:103B40008091E800877F8093E8008091EB0080629D
:103B50008093EB00AA960FB6F894DEBF0FBECDBFE0
:103B6000DF91CF911F9108951F920F920FB60F9280
:103B700011242F933F934F935F936F937F938F9372
:103B80009F93AF93BF93CF93DF93EF93FF93D09126
:103B9000E900DF708091EC00C82FC17080FDC0E8A3
:103BA0001092E9008091F000877F8093F000789474
:103BB0000E94EF1A1092E9008091F00088608093D3
:103BC000F000CD2BCF70C093E900FF91EF91DF9112
:103BD000CF91BF91AF919F918F917F916F915F91A5
:103BE0004F913F912F910F900FBE0F901F901895FE
:103BF0001F920F920FB60F9211242F933F934F9362
:103C00005F936F937F938F939F93AF93BF93EF9344
:103C1000FF938091E10082FF09C08091E20082FF62
:103C200005C08091E1008B7F8093E1008091DA00F4
:103C300080FF24C08091D80080FF20C08091DA00EE
:103C40008E7F8093DA008091D90080FF9FC080E151
:103C500089BD82E189BD09B400FEFDCF81E080937A
:103C60003A0380911503811109C00E94000D0E9442
:103C7000CB0D8091E20084608093E2008091E100AE
:103C800080FF17C08091E20080FF13C08091E200A6
:103C90008E7F8093E2008091E20080618093E20059
:103CA0008091D80080628093D80019BC85E0809311
:103CB0003A038091E10084FF2DC08091E20084FFEF
:103CC00029C080E189BD82E189BD89B5982F9170B5
:103CD00080FFFBCF8091D8008F7D8093D8008091AA
:103CE000E1008F7E8093E1008091E2008F7E8093DF
:103CF000E2008091E20081608093E20080913B03CA
:103D0000882309F449C084E080933A030E94DA1AB8
:103D10000E94A2118091E10083FF27C08091E20000
:103D200083FF23C08091E100877F8093E10082E0E0
:103D300080933A0310923B038091E1008E7F809341
:103D4000E1008091E2008E7F8093E2008091E200AA
:103D500080618093E20042E060E080E00E94990D83
:103D60008091F00088608093F000FF91EF91BF9107
:103D7000AF919F918F917F916F915F914F913F9103
:103D80002F910F900FBE0F901F90189519BC109295
:103D90003A031092150372CF8091E30087FD93E000
:103DA00090933A03B3CF882309F459C0823871F451
:103DB0000E94A21181FF53C089E30E94D0100E948B
:103DC000601089E30E94A5100C946010833859F4A8
:103DD0000E94A21180FF43C083E50E94D0100E9480
:103DE000601083E5EFCF843859F40E94A21182FF5E
:103DF00036C087E40E94D0100E94601087E4E2CFB2
:103E00009CEF980F913AF0F290E2980F983088F476
:103E1000877021E030E0A90102C0440F551F8A9548
:103E2000E2F7CA01809590918902892380938902E3
:103E3000CBCF9BE5980F933020F490E080E00C947A
:103E40008C1198E5980F973120F490E080E00C9465
:103E50007611803F20F00E94960E0C94391A089536
:103E6000CF93C82F882309F4AEC08238C1F40E94D2
:103E7000A21181FDA8C089E30E94D0100E946010A9
:103E80002FEF81EE94E0215080409040E1F700C098
:103E9000000089E30E94A510CF910C946010833834
:103EA000A1F40E94A21180FD8EC083E50E94D01073
:103EB0000E9460102FEF81EE94E0215080409040EE
:103EC000E1F700C0000083E5E5CF8438A1F40E944B
:103ED000A21182FD78C087E40E94D0100E94601079
:103EE0002FEF81EE94E0215080409040E1F700C038
:103EF000000087E4CFCF8CEF8C0F813A88F580915A
:103F00002201882301F18091940287FF1CC0EC2FCD
:103F1000E695E695E695F0E0E455FE4F828190E067
:103F20004C2F477021E030E002C0220F331F4A952A
:103F3000E2F782239323892B79F08C2F0E94A5101E
:103F40000E94601009C0EEEAF1E08191C817A9F360
:103F500021E0E43BF207C9F78C2F0E94D0109CCFE0
:103F600080E28C0F883068F4C77021E030E001C037
:103F7000220FCA95EAF780918902822B80938902E9
:103F80008BCFEBE5EC0FE33040F4F0E0E25BFE4F6B
:103F9000808190E0CF910C948C11E8E5EC0FE73133
:103FA00050F4F0E0EE0FFF1FEF5AFE4F8081918139
:103FB000CF910C947611C03F30F08C2F0E94570F98
:103FC000CF910C94391ACF910895CF93C82F0E94A6
:103FD000301FC93349F42FEF87EE93E02150804022
:103FE0009040E1F700C000008C2FCF910C94D31EBD
:103FF000CF93DF93D82FC62F6091B2027091B30296
:104000008091B4029091B5020E940D10D11118C098
:10401000833061F0843011F0811116C08AEAC11139
:1040200001C089EADF91CF910C94E51FCC2321F0E8
:10403000DF91CF910C945519DF91CF910C946119B8
:10404000823028F0843051F3DF91CF91089580E5DC
:10405000C111E8CF8FE4E6CF9FB1292F2170909551
:10406000917090933B0230913A02931302C08823DF
:1040700031F1211120C06091B2027091B3028091A0
:10408000B4029091B5020E940D10813041F0882356
:1040900011F0843081F48EEA0E94E51F0CC080EE9E
:1040A0000E94301F8EE00E94301F8EE00E94D31EBF
:1040B00080EE0E94D31E80913B0280933A020895C5
:1040C0000F931F93CF93DF93C62FD42F022FFC01A2
:1040D00082818823A1F0609342020E942D1A90935E
:1040E0003D0280933C02C77081E001C0880FCA95F1
:1040F000EAF7DF91CF911F910F910C946C11109101
:104100004202161335C080913C0290913D020E94FC
:10411000FE0F883C910560F5C0E2CD0F1D17B9F088
:1041200080E2810F883040F4177081E001C0880F71
:104130001A95EAF70E946111C83048F481E09D2F7A
:10414000977001C0880F9A95EAF70E946C11802F32
:104150000E94E51FC83098F4D77081E001C0880F35
:10416000DA95EAF7DF91CF911F910F910C946111CD
:10417000C77081E001C0880FCA95EAF7F3CFDF91DD
:10418000CF911F910F9108959091A40290FF3DC08F
:104190009170811129C092609093A402662351F01E
:1041A0006091A4027091A5028091A6029091A7024D
:1041B0000E948C186091A402669570E04BE050E07C
:1041C00084E091E00E943D32892BA9F01092AA026E
:1041D00081E08093A10220E04091A7026091A602B5
:1041E0008091A5020C94C0188B3210F09465D4CF46
:1041F000880F982BD1CF81E08093AA020E942D1ABC
:1042000090939F0280939E02E3CF08958091A40231
:104210008695815009F48AE261E00C94C420809173
:10422000A40286958F5F8B3208F081E061E00C94E8
:10423000C4209091A40290FF07C09695981720F093
:10424000961710F40C940F2161E00C94C4204F9247
:104250005F926F927F928F929F92AF92BF92CF9216
:10426000DF92EF92FF920F931F93CF93DF9300D0D3
:1042700000D00F92CDB7DEB77C01FC018381948121
:10428000892B39F010810181812F80238F3F09F024
:104290000CC50F900F900F900F900F90DF91CF9162
:1042A0001F910F91FF90EF90DF90CF90BF90AF9054
:1042B0009F908F907F906F905F904F9008950E9495
:1042C0003714D82E682F89819A810E942B1124E0FF
:1042D000D29EF0011124E00FF11DEE0FFF1FEE0F33
:1042E000FF1FE10FF11DEE0FFF1FED54FD4F059174
:1042F0001491033F3CE5130709F493C0B0F5083D62
:104300009CE5190709F489C0093DECE51E0709F48D
:1043100094C0073DFCE51F07B1F526E241EE61EED2
:10432000C7010E94602080918602877009F4B1CF96
:10433000F7018281882309F4ACCF82E00F900F90BF
:104340000F900F900F90DF91CF911F910F91FF90E1
:10435000EF90DF90CF90BF90AF909F908F907F9025
:104360006F905F904F900C94971A053F2CE51207C1
:1043700009F45FC008F459C027E245EE66EE063F37
:104380008CE5180769F2F7019281992309F49EC41C
:10439000109242020230FCE51F0708F42FC10631DB
:1043A0002CE5120738F098012A5F3C452930310589
:1043B00008F024C10E947E18909395028093940285
:1043C00000313CE5130709F4E8C008F076C0083076
:1043D0009CE5190709F4D7C008F045C00430FCE596
:1043E0001F0709F4C8C060F502303CE5130709F463
:1043F000B8C003301C4509F4BAC060919402109112
:10440000950284E090E00E945E32612F81E290E0AC
:104410000E945E320E94DA1A86CF27E245EE65EEF0
:104420007FCF26E241EE60EE7BCF27E245EE64EEE1
:1044300077CF26E241EE62EE73CF28E241E0EFCF84
:1044400080919402806106309CE5190709F48CC0C4
:1044500080919402886007301C4508F485C08091E3
:104460009402806281C0809194028D7F0C30FCE5C3
:104470001F0709F479C070F4809194028C600A30AF
:104480003CE5130709F470C008F481C080919402E0
:104490008E7F6AC080919402877F0E309CE5190759
:1044A00009F462C0809194028B7F0F301C4508F4A0
:1044B0005BC0809194028F7E57C00B3FFCE51F07C5
:1044C00009F45DC030F503313CE5130709F46DC014
:1044D00078F401319CE5190709F463C002311C45E9
:1044E00009F08BCF0E94DA1A809194028F773CC03A
:1044F0000531FCE51F0709F460C008F474C0809121
:10450000950281600A3F1C4509F077CF80939502A0
:1045100074CF0F3F8CE5180709F44BC088F48091E5
:1045200095028D7F0D3FECE51E0781F3809195028A
:104530008E7F0E3F1C4550F3809195028360E6CF3D
:1045400001302DE5120709F457C008F442C060E0BD
:1045500002301D4509F051CF8EE090E00E945E329E
:104560004CCF8091940281608093940246CF8091D9
:1045700094028260F9CF809194028460F5CF80919B
:1045800095028260C3CF809194028064EDCF0E9437
:10459000DA1A809194028068E7CF809194028F7D2F
:1045A000E3CF809194028F7BDFCF80919402837F51
:1045B000DBCF809195028C7FA9CF8091940282FB02
:1045C000992790F921E0922790FB82F990FB83F9DB
:1045D000CBCF80919502982F909591708E7F892BEB
:1045E00090FB81F993CF0E94DA1A90919402892F5F
:1045F00097FB87F98058B8CF61E0AECF80918902F0
:104600000631ECE51E0709F06DC38A7A91E009F4E2
:1046100090E090934302811106C089E20E94D0107D
:104620000E94601080CE85E3F9CF85E358C3809166
:10463000A40280FF1BC08E7F8093A4026091A4021D
:104640007091A5028091A6029091A7020E948C18F9
:104650001092AA02FFEF20E732E0F15020403040F4
:10466000E1F700C000000E94DF155DCE81608093FD
:10467000A40261E086950E94C42055CE46E051E236
:104680006FE071E20E94AE114ECE4FE051E266E063
:1046900071E2F8CF45E859E16EE879E1F3CF4EE8F1
:1046A00059E165E879E1EECF4DE659E169E779E155
:1046B000E9CF49E759E16DE679E1E4CF45E559E114
:1046C00061E679E1DFCF41E659E165E579E1DACFED
:1046D0004FEA58E16EE978E1D5CF4EE958E16FEA4B
:1046E00078E1D0CF61E081E0C6CF65E082E00E9452
:1046F000192119CE68E086E0FACF6EE089E0F7CFA5
:1047000064E18FE0F4CF67E185E1F1CF61E088E11A
:10471000B2CF62E289E1EBCF61E083E2ACCF011579
:104720008CE5180709F447C00E3D1C4509F450C03C
:10473000F70100811181992309F44DC0C8010E943D
:104740003714D82E682FC8010E942B11B8018D2D67
:104750000E949B128C01882EF701A580A2947FE015
:10476000A722D280D1101092880280918602877091
:1047700099F0DD2089F0812F807F803421F080E264
:10478000800F883048F082E00E94971A809186025C
:104790008770CC24C3948111C12CB12EB2946FE0E8
:1047A000B622FBE0FB1508F450C0EB2DF0E0E15F12
:1047B000FC4C0C94DB310E94DA1AFFEF24E33CE05E
:1047C000F15020403040E1F700C000000E94BB15CE
:1047D0000E94A619A8CDC8010E940411D82EB6CFF8
:1047E000212F2F70A22E107F19F0A29450EFA52236
:1047F000DD20C9F0AA2069F080E2800F883010F037
:1048000081100BC080918902A82AA09289020E947F
:104810006010802F0E94301F18C080918802A82A43
:10482000A0928802F4CF802F0E94D31EAA2069F0A4
:10483000A094005E083010F0811047C0809189027A
:10484000A822A09289020E946010EB2DE850FF0B75
:10485000349710F40E94A211CC20A9F08091860216
:1048600080FD11C0F70112828595859585950E947E
:10487000AF1AC7010E9427218091860285958595F0
:1048800085950E94741A85E0F701DE01119601906A
:104890000D928A95E1F789819A810E940411EA813B
:1048A000F4E08F9FC00111248E0F911D880F991F76
:1048B000880F991FE981E80FF92FF11DEE0FFF1FF7
:1048C000ED54FD4F85919491E4CC80918802A8220B
:1048D000A0928802B8CF312F3F70932E107F1032F4
:1048E00019F0929440EF9422882071F091E089169B
:1048F00061F1DD20B9F1AA2071F1F701858180FF16
:1049000088CF8F70858327C0DD2091F090918A0237
:10491000892D892BA11003C00E946C1196CFE1E074
:10492000AE12FACF981709F490CF80938A028DCFF8
:10493000A11006C00E945A10892D0E94611185CFD6
:10494000F1E0AF1609F481CFF5CFDD2031F025E09D
:104950002A1508F47ACF892DDFCF34E03A1508F410
:1049600074CFEACFAA2041F3093349F4FFEF27EED1
:1049700033E0F15020403040E1F700C00000802FCC
:104980000E94D31E62CF812F86958695837061F039
:10499000813009F05ACFC8019370D11002C090E065
:1049A00080E00E94761151CFC8019370D11002C0EF
:1049B00090E080E00E948C1148CF802FDD2029F00C
:1049C0000E94570F0E94391A40CF0E94960EFACFCC
:1049D000812F837009F066C0D11037CF802F829568
:1049E00086958770880F880F602F6F70462E512C28
:1049F000712C612C082E04C0440C551C661C771CBD
:104A00000A94D2F740E050E0BA0104FF0FC04FE033
:104A100050E060E070E004C0440F551F661F771F30
:104A20008A95D2F74095509560957095812F86951F
:104A300086958370823019F1D8F400918B02109121
:104A40008C0220918D0230918E02813069F04429D0
:104A5000552966297729CB01BA0160237123822366
:104A600093230E94D01AF1CE402A512A622A732A37
:104A7000CB01BA016429752986299729F2CF4429E7
:104A800055296629772900918B0210918C0220917B
:104A90008D0230918E02CB01BA01602771278227E7
:104AA0009327DFCF8695DD2011F0812F8170882339
:104AB00009F4CBCE802F829586958770880F880F5A
:104AC000602F6F70462E512C712C612C082E04C063
:104AD000440C551C661C771C0A94D2F740E050E049
:104AE000BA0104FF0FC04FE050E060E070E004C086
:104AF000440F551F661F771F8A95D2F74095509532
:104B000060957095812F869586958370823019F116
:104B1000D8F40091B2021091B3022091B402309106
:104B2000B502813069F04429552966297729CB01DE
:104B3000BA0160237123822393230E946A1A85CECF
:104B4000402A512A622A732ACB01BA0164297529A5
:104B500086299729F2CF442955296629772900917A
:104B6000B2021091B3022091B4023091B502CB0190
:104B7000BA016027712782279327DFCF1F70DD20BE
:104B800029F0812F0E94AF1A802FC6CE802F0E945D
:104B90006111812F0E94741A58CE802F92EF8916CE
:104BA00009F450C0981578F0E0EF8E1619F1F1EF86
:104BB0008F1609F43FC0DD2009F467C0A11029CE8B
:104BC000812F8F713CC023EF821609F440C034EF6F
:104BD0008312F1CFDD2009F44DC01F71812F0E9497
:104BE000AF1AE8E01E9FC001112483608093860203
:104BF000812F25C0DD20C9F084E08A1508F425CE78
:104C00001F7161E070E080E090E004C0660F771FE4
:104C1000881F991F1A95D2F70091B2021091B30222
:104C20002091B4023091B502A4CF95E09A1508F412
:104C30000CCEE6CF812F8F71DD2009F4ABCF0E941F
:104C4000AF1A03CE812F8F71DD20C9F3A3CF60E0AF
:104C500070E0CB01DD2009F470CF1F7161E070E0DE
:104C600080E090E004C0660F771F881F991F1A9597
:104C7000D2F763CF81E00E94971AF1E0FA1508F0AD
:104C8000E4CD82E00E94971AE0CDAA2059F0893342
:104C900009F075CE2FEF37EE83E021503040804091
:104CA000E1F76BCE812F8F7175CF85E0DE01119614
:104CB00001900D928A95E1F7F701228189819A810D
:104CC0002111FDCA0E940411D82E01CB06311C45CA
:104CD00009F02ECD809143028111A7CC89E20E9478
:104CE000A5109ECC8272F801E25CFC45E431F1052E
:104CF00008F015CDE55EFC4C0C94DB311F93CF938F
:104D0000DF9380914902807FA9F480914602882335
:104D100089F080917B02D0914A02609144027091A7
:104D20004502A0914702B0914802C62FC72316E062
:104D3000D81304C0DF91CF911F91089590E0109790
:104D400011F0CF3F19F401968770F2CF189F9001B0
:104D5000199F300D1124F901E55BFD4F4181471387
:104D6000F2CF40814613EFCF42814111ECCF438116
:104D700054814A1B5B0B483C510528F7809149023E
:104D80008F70806180934902F901E05BFD4F808163
:104D90008F708061808384E492E00E942721DF91FC
:104DA000CF911F910C945711AF92BF92CF92DF9287
:104DB000EF92FF920F931F93CF93DF93CDB7DEB7A0
:104DC00061970FB6F894DEBF0FBECDBF8C0185E0B2
:104DD000F801DE011D9601900D928A95E1F7F80128
:104DE00080819181E28024E4A22E22E0B22E6091A3
:104DF0004702709148026115710509F43EC1309176
:104E0000440240914502232F24232F3F09F435C14A
:104E1000C380D480F0904602F601E61BF70BFF201A
:104E200009F4FBC020914902522F507FE83CF10564
:104E300008F0BBC0511178C0FE2C491321C03813B3
:104E40001FC0E1101DC02F70206120934902C501D1
:104E50000E94272180914902F80185838F2D619658
:104E60000FB6F894DEBF0FBECDBFDF91CF911F917B
:104E70000F91FF90EF90DF90CF90BF90AF9008958B
:104E8000CD2829F0282F29232F3F09F014C120E035
:104E9000F22FF170DF2E20FF3DC020917B02409168
:104EA0004A0256E0241315C08D879E878D859E8506
:104EB0000E947914292F22952F702230F8F0243087
:104EC00020F59F70F9F0F8019581907FD9F4D12CED
:104ED0001FC030E0529FF001539FF00D1124E55B9D
:104EE000FD4F6181961306C06081861303C0628105
:104EF000E61210C02F5F3F4F2770D4CF9F7011F084
:104F0000882329F3805E883010F3C8010E9427218E
:104F1000FD2CA4CFEE2009F4A1CF8091490281603D
:104F200080934902F12C9ACF491312C0381310C054
:104F3000E1100EC0F8012583C8010E94272186E0F8
:104F4000F801A4E4B2E001900D928A95E1F786CFD2
:104F50008D879E878D859E850E948314882309F105
:104F6000EE20F9F080914902803270F020914402E5
:104F70003091450238872F831986DB86CA868C8755
:104F8000CE0107960E94272186E0F801A4E4B2E052
:104F900001900D928A95E1F70E947E26FF24F394FA
:104FA0005DCFC8010E942721F9CF51110AC084E4C6
:104FB00092E00E94272186E0F50111928A95E9F797
:104FC000B1CF49130FC038130DC0E1100BC0F80169
:104FD0002583C8010E94272186E0F50111928A9558
:104FE000E9F73CCF8D879E878D859E850E9483142F
:104FF0008823B9F2EE20A9F280914902803220F292
:1050000020914402309145023A8329831B82DD823C
:10501000CC828E83CE010196B5CFE83CF105E0F657
:10502000FE2CEE2009F4BDCF491316C0381314C06E
:105030008091490280FD83CF982F907F09F47FCF24
:10504000F8018583903F09F477CF982F907F905F88
:105050008F70892B858370CF8D879E878D859E85E8
:105060000E948314811190CF8091490281608093C6
:105070004902C8010E942721F1CEEE2009F491CF08
:105080008D879E878D859E850E948314F82E8823A8
:1050900009F487CF86E0F801A4E4B2E001900D9214
:1050A0008A95E1F780914402909145020E9479141B
:1050B0000E947E26D3CE21E02E25EACE1F93CF93E9
:1050C000DF93CDB7DEB767970FB6F894DEBF0FBE9C
:1050D000CDBF4B8B5C8B6D8B7E8B8F8B1A8A198A25
:1050E00085E0FE017396DE011D9601900D928A9572
:1050F000E1F786E0FE013D96DE01179601900D92E4
:105100008A95E1F7CE0107960E94D426882389F07C
:1051100016E080917B0290914A02891349C06796FC
:105120000FB6F894DEBF0FBECDBFDF91CF911F91B8
:10513000089586E0FE013796DE01119601900D92EA
:105140008A95E1F78A859B85892B11F38F81988554
:1051500089238F3FE9F220914A0230E0C90101968C
:105160008770992740917B024817190671F40E94B5
:10517000DA1A10924A0210927B0286E0E4E4F2E02E
:10518000DF011D928A95E9F7C3CF96E0929FD00187
:10519000939FB00D1124A55BBD4FFE013196019088
:1051A0000D929A95E1F780934A020E945711B0CF71
:1051B000819FC0011124855B9D4F0E94D4268823C6
:1051C00009F4ADCF80917B0290E00196877099271A
:1051D00080937B029ECF4F925F927F928F929F929D
:1051E000AF92BF92CF92DF92EF92FF920F931F93F5
:1051F000CF93DF930FE711E030E020E0C0E0EE2432
:10520000E394F12C54E9A52E52E0B52ED8018D91EE
:105210008D01E82FE295EF70F0E091A18F70B7015A
:1052200001C0660F8A95EAF7892F862B81A382A198
:10523000D62FD0958D2382A3B0EABA95F1F7A701B6
:10524000022E01C0440F0A94EAF7942E409580E99B
:10525000482E82E0582E93E8C92E91E0D92E812C59
:10526000D2017D902D01D6015D916D01852F829532
:105270008F7090E0DC0190968C9190E05F7002C09E
:10528000959587955A95E2F7592D572980FF02C0C9
:10529000542F5721751631F0C2010197DC015C9340
:1052A00088248394A414B504D9F681A1D823D1A36A
:1052B00082A1682B62A3C8292F5F3F4F243031059C
:1052C00009F0A4CFCC2321F181E08093CE010E948C
:1052D0002D1A9093CD018093CC018091CC019091B7
:1052E000CD010E94FE0F0697B8F080919002809346
:1052F0009A028091910280939B0280919202809306
:105300009C028091930280939D021092CE0104C072
:105310008091CE018111E1CF80E00E942C208C2F62
:10532000DF91CF911F910F91FF90EF90DF90CF9081
:10533000BF90AF909F908F907F905F904F90089517
:10534000CDB7DEB762970FB6F894DEBF0FBECDBF04
:1053500084B7877F84BF0FB6F894A89580916000CA
:10536000886180936000109260000FBE80E890E03A
:105370000FB6F89480936100909361000FBE85B7DB
:10538000806885BF85B7806885BF0E94000D0E9438
:10539000CB0D8091E20084608093E200789480914C
:1053A0003A038823A1F01091E9001F709091EC005E
:1053B000892F817090FD80E8182B1092E900809170
:1053C000E80083FD0E94EF1A1F701093E90082E04D
:1053D00084BD93E095BD9AEF97BD80936E00AFE7D3
:1053E000B1E043E851E061E070E08D91E82FE29593
:1053F000EF70F0E011A18F709B0101C0220F8A9520
:10540000EAF7922F9095912391A382A1822B82A3F8
:105410004A175B0751F7A3E8B1E047E851E061E0C4
:1054200070E08D91E82FE295EF70F0E011A18F70A0
:105430009B0101C0220F8A95EAF7922F9095912344
:1054400091A382A1822B82A34A175B0751F7109286
:10545000900210929A021092910210929B02109266
:10546000920210929C021092930210929D0290E080
:1054700080E00E9458328C3E9E4F11F00E94A61987
:1054800082E08093F60280E88093B1020E94B030FF
:105490006DE070E086E693E00E94A714892B09F086
:1054A00042C08091F60263E070E081FD47C083E670
:1054B00093E00E94A714892BB1F56DE070E083E5BD
:1054C00093E00E94A714892B71F52FB7F89480916F
:1054D000F8029091F902A091FA02B091FB022FBF5D
:1054E00080569947AE4FBF4F8093FC029093FD02C8
:1054F000A093FE02B093FF02E6E4F3E080E094E0C4
:10550000DF019C011D9221503040E1F78FEF9FEFAA
:10551000909345038093440381E08093010380933B
:1055200000031092F70290E080E00E9458328C3E17
:105530009E4F11F00E94A61915E60BC080E693E07D
:10554000B8CF0E94EB288FE39CE90197F1F700C0E8
:1055500000001150B1F789E20E94F00F8111EEC0F6
:105560008AE20E94F00F81110E94A61985E00E9434
:10557000F00F81110E94BB1582E090E00E944A3238
:105580008093100387E00E94F00F882371F08BE175
:105590000E94F00F882309F41CC490911003892FF6
:1055A0008D7F91FF8260809310036091100382E0F1
:1055B00090E00E945E320E947E1890939502809344
:1055C000940280EE0E94F00F882341F090919402A3
:1055D000892F8E7F90FF81608093940289E30E94DF
:1055E000F00F882341F090919402892F8D7F91FFD5
:1055F00082608093940282EE0E94F00F882341F033
:1056000090919402892F8B7F92FF84608093940203
:1056100086EE0E94F00F882341F090919402892F2A
:10562000877F93FF88608093940283EE0E94F00F3F
:10563000882341F090919402892F8F7E94FF80619E
:105640008093940285E30E94F00F882341F09091AB
:105650009402892F8F7D95FF80628093940281E36D
:105660000E94F00F882341F090919402892F8F7B44
:1056700096FF80648093940281E10E94F00F88235A
:1056800041F090919402892F97FB87F9805880937D
:105690009402609194021091950284E090E00E943F
:1056A0005E32612F81E290E00E945E3287E20E94CA
:1056B000F00F182F8EE10E94F00F811112608FE120
:1056C0000E94F00F8111146080E20E94F00F81119E
:1056D000186081E20E94F00F8111106182E20E9445
:1056E000F00F8111106283E20E94F00F81111064AB
:1056F00084E20E94F00F882309F488C31068612FA8
:1057000083E090E00E945E32612F70E090E080E0E4
:105710000E94D01A8FE00E94F00F882329F061E0E8
:105720008EE090E00E945E3285E10E94F00F8823B7
:1057300029F060E08EE090E00E945E328091960257
:10574000811136C090E080E00E9458328C3E9E4F1E
:1057500021F00E94A6190E94971988E090E00E940B
:1057600052326093A4027093A5028093A602909394
:10577000A7026E7F71F40E94971988E090E00E9462
:1057800052326093A4027093A5028093A602909374
:10579000A7020E94B3111092AA028091A40280FF76
:1057A00004C060E086950E94C42081E08093960248
:1057B0006BE971E04FEA52E0F7E98F2EF1E09F2E9E
:1057C000E9E9F1E021E030E01191812F82958F70BD
:1057D00090E0DC019196FC9091971F70E12E690199
:1057E00001C0CC0C1A95EAF70C2D00950F2191966B
:1057F0000C93919792961C9192971C2992961C93C8
:10580000D401FD904D010F2D02950F7010E0D801CD
:105810009196BC90BF2DBF70FB2E690101C0CC0CCE
:10582000BA95EAF7DC2CD094DB20D8019196DC9273
:1058300091979296DC909297DC289296DC92DC010C
:1058400090968C9190E002C095958795EA94E2F746
:105850008170D80190960C9110E002C015950795C3
:10586000FA94E2F790E000FD92E0892BDA018D9343
:10587000AD016E177F0709F0A7CF8098889A81E065
:105880000E942C208091A40281608093A40260E099
:1058900086950E94C42020E04AED6AED8EE10E94C8
:1058A000C01888E191E09093980280939702222497
:1058B0002394312C8AE992E0E4E06E2E680E809108
:1058C0003A03853009F4AAC20E94EB28782EAAE98F
:1058D000B2E0E1E1F3E010E000E0302F8D91919132
:1058E000981709F4D7C2292F282790E0FF24F394B2
:1058F000422F4F2109F4C9C29F8338878F2191E03D
:1059000009F490E099870E942D1A8160782F9B8777
:105910008A874F81588569858B850E945E28F801AA
:10592000EF5EFC4F8081F826F0828091AA028823E6
:1059300009F441C08091A902E091A402E695E81B18
:10594000E093A002823009F0BCC2F0E0EC57FC4FBB
:10595000E4910E2F10E06AE5E62E68E1F62E8091C4
:10596000A102882389F01092A1020E942D1A9801A9
:1059700020953095820F931F90939F0280939E02F3
:105980001092A3021092A20280919E0290919F0217
:105990000E94FE0F8017910770F0E0919E02F09137
:1059A0009F020E0F1F1F10939F0200939E028EE90D
:1059B00092E0F70109955DEAE52E52E0F52E0BEA3B
:1059C00012E067E9A62E61E0B62E79E9872E71E034
:1059D000972EEFEACE2EE2E0DE2E512CD601ED918D
:1059E0006D01EE0FEE0FD4012D914D01A22FA29566
:1059F000AF70B0E090968C9190E02F7002C09595BA
:105A000087952A95E2F781709927D5014D915D011F
:105A1000A42FA295AF70B0E090962C9130E04F701B
:105A200002C0359527954A95E2F7A901417055279F
:105A300020FF02C042E050E0842BE82BD6011197F2
:105A4000EC93EF70F0E0E957FE4F8081F701908111
:105A5000890F8083843044F0D8018C918F5F8C93C0
:105A600060E0852D0E94F81FF70180818D3F44F48E
:105A7000D8018C9181508C9361E0852D0E94F81F94
:105A8000F7018081837887FF03C081508C6F8F5F1F
:105A9000D7018D937D010F5F1F4FB1E05B127DC277
:105AA00080910103882309F49EC06091B202709135
:105AB000B3028091B4029091B5020E940D10823021
:105AC00009F47BC208F06CC2882309F479C28130E2
:105AD00009F46EC22091440330914503211531052C
